{
  "transactions": [
    {
      "hash": "0x38a179509a1213259ac32a4f67c3fad43891333b6af7be15ee80dbaf3fc16ed9",
      "transactionType": "CALL",
      "contractName": null,
      "contractAddress": "0x4200000000000000000000000000000000000042",
      "function": "approve(address,uint256)",
      "arguments": [
        "0x30B6f7C268fa02b96284A7A2b3Af38E006b5e2A2",
        "5000000000000000000"
      ],
      "transaction": {
        "from": "0x8835669696fb92839ab198cd80ce9f0d35f45ad5",
        "to": "0x4200000000000000000000000000000000000042",
        "gas": "0xfd42",
        "value": "0x0",
        "input": "0x095ea7b300000000000000000000000030b6f7c268fa02b96284a7a2b3af38e006b5e2a20000000000000000000000000000000000000000000000004563918244f40000",
        "nonce": "0x7b",
        "chainId": "0xa"
      },
      "additionalContracts": [],
      "isFixedGasLimit": false
    },
    {
      "hash": "0xc4c4fefae9a4cdb4b002f5619b7873a0e7b43a340dae1a475e142324de8de807",
      "transactionType": "CALL",
      "contractName": null,
      "contractAddress": "0x30b6f7c268fa02b96284a7a2b3af38e006b5e2a2",
      "function": "fundRaffle(uint256,uint256)",
      "arguments": [
        "2",
        "5000000000000000000"
      ],
      "transaction": {
        "from": "0x8835669696fb92839ab198cd80ce9f0d35f45ad5",
        "to": "0x30b6f7c268fa02b96284a7a2b3af38e006b5e2a2",
        "gas": "0x3a617",
        "value": "0x71afd498d0000",
        "input": "0x988ddfa300000000000000000000000000000000000000000000000000000000000000020000000000000000000000000000000000000000000000004563918244f40000",
        "nonce": "0x7c",
        "chainId": "0xa"
      },
      "additionalContracts": [],
      "isFixedGasLimit": false
    }
  ],
  "receipts": [
    {
      "status": "0x1",
      "cumulativeGasUsed": "0x7c9071",
      "logs": [
        {
          "address": "0x4200000000000000000000000000000000000042",
          "topics": [
            "0x8c5be1e5ebec7d5bd14f71427d1e84f3dd0314c0f7b2291e5b200ac8c7c3b925",
            "0x0000000000000000000000008835669696fb92839ab198cd80ce9f0d35f45ad5",
            "0x00000000000000000000000030b6f7c268fa02b96284a7a2b3af38e006b5e2a2"
          ],
          "data": "0x0000000000000000000000000000000000000000000000004563918244f40000",
          "blockHash": "0xa9d3d687b89f8d1b1ed5d7a40e203255d42c4ebe33b73f2de75330197d89bdf2",
          "blockNumber": "0x7916aef",
          "transactionHash": "0x38a179509a1213259ac32a4f67c3fad43891333b6af7be15ee80dbaf3fc16ed9",
          "transactionIndex": "0x25",
          "logIndex": "0x7d",
          "removed": false
        }
      ],
      "logsBloom": "0x00000000000000000000000000000000000000000000000000000000000000000000000000000000000000000000000000000000000000000000000000200040000000000000000020000000000000000000000000000000000000000000000000000000000000000000040000200000000000000000000000000000000000000000000000000000000000000000004000000000000000000000000000000000020000000000000000000000000000000000000000000000000000000000000000000000000000000000000000000000008000040000000000000000000000000010000000200000000000000000000000000080000000000000000000000000",
      "type": "0x2",
      "transactionHash": "0x38a179509a1213259ac32a4f67c3fad43891333b6af7be15ee80dbaf3fc16ed9",
      "transactionIndex": "0x25",
      "blockHash": "0xa9d3d687b89f8d1b1ed5d7a40e203255d42c4ebe33b73f2de75330197d89bdf2",
      "blockNumber": "0x7916aef",
      "gasUsed": "0xb75c",
      "effectiveGasPrice": "0xfdf0",
      "from": "0x8835669696fb92839ab198cd80ce9f0d35f45ad5",
      "to": "0x4200000000000000000000000000000000000042",
      "contractAddress": null,
      "l1BaseFeeScalar": "0x146b",
      "l1BlobBaseFee": "0x1",
      "l1BlobBaseFeeScalar": "0xf79c5",
      "l1Fee": "0xff0820204",
      "l1GasPrice": "0x1e7e98a10",
      "l1GasUsed": "0x640"
    },
    {
      "status": "0x1",
      "cumulativeGasUsed": "0x7f0f23",
      "logs": [
        {
          "address": "0x4200000000000000000000000000000000000042",
          "topics": [
            "0x8c5be1e5ebec7d5bd14f71427d1e84f3dd0314c0f7b2291e5b200ac8c7c3b925",
            "0x0000000000000000000000008835669696fb92839ab198cd80ce9f0d35f45ad5",
            "0x00000000000000000000000030b6f7c268fa02b96284a7a2b3af38e006b5e2a2"
          ],
          "data": "0x0000000000000000000000000000000000000000000000000000000000000000",
          "blockHash": "0xa9d3d687b89f8d1b1ed5d7a40e203255d42c4ebe33b73f2de75330197d89bdf2",
          "blockNumber": "0x7916aef",
          "transactionHash": "0xc4c4fefae9a4cdb4b002f5619b7873a0e7b43a340dae1a475e142324de8de807",
          "transactionIndex": "0x26",
          "logIndex": "0x7e",
          "removed": false
        },
        {
          "address": "0x4200000000000000000000000000000000000042",
          "topics": [
            "0xddf252ad1be2c89b69c2b068fc378daa952ba7f163c4a11628f55a4df523b3ef",
            "0x0000000000000000000000008835669696fb92839ab198cd80ce9f0d35f45ad5",
            "0x00000000000000000000000030b6f7c268fa02b96284a7a2b3af38e006b5e2a2"
          ],
          "data": "0x0000000000000000000000000000000000000000000000004563918244f40000",
          "blockHash": "0xa9d3d687b89f8d1b1ed5d7a40e203255d42c4ebe33b73f2de75330197d89bdf2",
          "blockNumber": "0x7916aef",
          "transactionHash": "0xc4c4fefae9a4cdb4b002f5619b7873a0e7b43a340dae1a475e142324de8de807",
          "transactionIndex": "0x26",
          "logIndex": "0x7f",
          "removed": false
        },
        {
          "address": "0x30b6f7c268fa02b96284a7a2b3af38e006b5e2a2",
          "topics": [
            "0xe5cd089353b4916668b2bbc55448d780928bf364fc9c1cee74f946af758d969e",
            "0x0000000000000000000000000000000000000000000000000000000000000001"
          ],
          "data": "0x00000000000000000000000000000000000000000000000000038d7ea4c6800000000000000000000000000000000000000000000000000022b1c8c1227a0000",
          "blockHash": "0xa9d3d687b89f8d1b1ed5d7a40e203255d42c4ebe33b73f2de75330197d89bdf2",
          "blockNumber": "0x7916aef",
          "transactionHash": "0xc4c4fefae9a4cdb4b002f5619b7873a0e7b43a340dae1a475e142324de8de807",
          "transactionIndex": "0x26",
          "logIndex": "0x80",
          "removed": false
        },
        {
          "address": "0x30b6f7c268fa02b96284a7a2b3af38e006b5e2a2",
          "topics": [
            "0xe5cd089353b4916668b2bbc55448d780928bf364fc9c1cee74f946af758d969e",
            "0x0000000000000000000000000000000000000000000000000000000000000002"
          ],
          "data": "0x00000000000000000000000000000000000000000000000000038d7ea4c6800000000000000000000000000000000000000000000000000022b1c8c1227a0000",
          "blockHash": "0xa9d3d687b89f8d1b1ed5d7a40e203255d42c4ebe33b73f2de75330197d89bdf2",
          "blockNumber": "0x7916aef",
          "transactionHash": "0xc4c4fefae9a4cdb4b002f5619b7873a0e7b43a340dae1a475e142324de8de807",
          "transactionIndex": "0x26",
          "logIndex": "0x81",
          "removed": false
        }
      ],
      "logsBloom": "0x04000000020000000000000000000000000000000000000000000000000000000000000000000000000000000000000080000000000000000000000000240040000000000000000020000008000000000000000000040000020000000000000000000000000000000000040000200000000000000000000000000010000000000000000000000000000000000000004000000000000000000000000000000000020000000000000000000100000000000000000000000000000000000000000000000002000000000000000000000000008000040000800000000000000040000010000000200100000000000000000000000080008000000000000000000000",
      "type": "0x2",
      "transactionHash": "0xc4c4fefae9a4cdb4b002f5619b7873a0e7b43a340dae1a475e142324de8de807",
      "transactionIndex": "0x26",
      "blockHash": "0xa9d3d687b89f8d1b1ed5d7a40e203255d42c4ebe33b73f2de75330197d89bdf2",
      "blockNumber": "0x7916aef",
      "gasUsed": "0x27eb2",
      "effectiveGasPrice": "0xfdf0",
      "from": "0x8835669696fb92839ab198cd80ce9f0d35f45ad5",
      "to": "0x30b6f7c268fa02b96284a7a2b3af38e006b5e2a2",
      "contractAddress": null,
      "l1BaseFeeScalar": "0x146b",
      "l1BlobBaseFee": "0x1",
      "l1BlobBaseFeeScalar": "0xf79c5",
      "l1Fee": "0xff0820204",
      "l1GasPrice": "0x1e7e98a10",
      "l1GasUsed": "0x640"
    }
  ],
  "libraries": [],
  "pending": [],
  "returns": {},
  "timestamp": 1729539998,
  "chain": 10,
  "commit": "ec8f290"
}