{
  "transactions": [
    {
      "hash": "0x82865e8116fd5d1a9968048caa6b3f4ef42d11cc4b61bd2bb74efb54dd221962",
      "transactionType": "CALL",
      "contractName": null,
      "contractAddress": "0xfc36bc415708459558e9c4b94f7f991386d7e405",
      "function": "approve(address,uint256)",
      "arguments": [
        "0x5840Cd416458904526D54C4bdBFF9A924985a153",
        "1000000000000000000"
      ],
      "transaction": {
        "from": "0x1726cf86da996bc4b2f393e713f6f8ef83f2e4f6",
        "to": "0xfc36bc415708459558e9c4b94f7f991386d7e405",
        "gas": "0x108e9",
        "value": "0x0",
        "input": "0x095ea7b30000000000000000000000005840cd416458904526d54c4bdbff9a924985a1530000000000000000000000000000000000000000000000000de0b6b3a7640000",
        "nonce": "0x235",
        "chainId": "0xaa36a7"
      },
      "additionalContracts": [],
      "isFixedGasLimit": false
    },
    {
      "hash": "0xe15aa8478d3795e22c38b2023bc4997f9b6a6feb1cf4ed4cabd98faa65924e62",
      "transactionType": "CALL",
      "contractName": null,
      "contractAddress": "0x5840cd416458904526d54c4bdbff9a924985a153",
      "function": "fundRaffle(uint256,uint256)",
      "arguments": [
        "2",
        "1000000000000000000"
      ],
      "transaction": {
        "from": "0x1726cf86da996bc4b2f393e713f6f8ef83f2e4f6",
        "to": "0x5840cd416458904526d54c4bdbff9a924985a153",
        "gas": "0x34825",
        "value": "0xde0b6b3a7640000",
        "input": "0x988ddfa300000000000000000000000000000000000000000000000000000000000000020000000000000000000000000000000000000000000000000de0b6b3a7640000",
        "nonce": "0x236",
        "chainId": "0xaa36a7"
      },
      "additionalContracts": [],
      "isFixedGasLimit": false
    }
  ],
  "receipts": [
    {
      "status": "0x1",
      "cumulativeGasUsed": "0x9cd22e",
      "logs": [
        {
          "address": "0xfc36bc415708459558e9c4b94f7f991386d7e405",
          "topics": [
            "0x8c5be1e5ebec7d5bd14f71427d1e84f3dd0314c0f7b2291e5b200ac8c7c3b925",
            "0x0000000000000000000000001726cf86da996bc4b2f393e713f6f8ef83f2e4f6",
            "0x0000000000000000000000005840cd416458904526d54c4bdbff9a924985a153"
          ],
          "data": "0x0000000000000000000000000000000000000000000000000de0b6b3a7640000",
          "blockHash": "0x86ed7960202913d32b11c3be160129c3ca28805a230b883e351487f38080d78f",
          "blockNumber": "0x64b839",
          "transactionHash": "0x82865e8116fd5d1a9968048caa6b3f4ef42d11cc4b61bd2bb74efb54dd221962",
          "transactionIndex": "0x3b",
          "logIndex": "0x47",
          "removed": false
        }
      ],
      "logsBloom": "0x00000000000000000000000000000000000100000000000000000000000000000000000000000000000000000000000000000000000000000000000000200000000000000000000000000000000000000000000000000400000000000000000000000000000000000000000000000000000000000000000000000000000000000000000000000002000000000000000000000000000000020000000000000000020000000000000000000000000000000000000000000000080000000020020000000000000000000000000000000000000000000000000000000000800000000010000000000000000000000002000000000000000000000000000000000000",
      "type": "0x2",
      "transactionHash": "0x82865e8116fd5d1a9968048caa6b3f4ef42d11cc4b61bd2bb74efb54dd221962",
      "transactionIndex": "0x3b",
      "blockHash": "0x86ed7960202913d32b11c3be160129c3ca28805a230b883e351487f38080d78f",
      "blockNumber": "0x64b839",
      "gasUsed": "0xb523",
      "effectiveGasPrice": "0x13ecc8286b",
      "from": "0x1726cf86da996bc4b2f393e713f6f8ef83f2e4f6",
      "to": "0xfc36bc415708459558e9c4b94f7f991386d7e405",
      "contractAddress": null
    },
    {
      "status": "0x1",
      "cumulativeGasUsed": "0x9f326e",
      "logs": [
        {
          "address": "0xfc36bc415708459558e9c4b94f7f991386d7e405",
          "topics": [
            "0xddf252ad1be2c89b69c2b068fc378daa952ba7f163c4a11628f55a4df523b3ef",
            "0x0000000000000000000000001726cf86da996bc4b2f393e713f6f8ef83f2e4f6",
            "0x0000000000000000000000005840cd416458904526d54c4bdbff9a924985a153"
          ],
          "data": "0x0000000000000000000000000000000000000000000000000de0b6b3a7640000",
          "blockHash": "0x86ed7960202913d32b11c3be160129c3ca28805a230b883e351487f38080d78f",
          "blockNumber": "0x64b839",
          "transactionHash": "0xe15aa8478d3795e22c38b2023bc4997f9b6a6feb1cf4ed4cabd98faa65924e62",
          "transactionIndex": "0x3c",
          "logIndex": "0x48",
          "removed": false
        },
        {
          "address": "0x5840cd416458904526d54c4bdbff9a924985a153",
          "topics": [
            "0xe5cd089353b4916668b2bbc55448d780928bf364fc9c1cee74f946af758d969e",
            "0x0000000000000000000000000000000000000000000000000000000000000001"
          ],
          "data": "0x00000000000000000000000000000000000000000000000006f05b59d3b2000000000000000000000000000000000000000000000000000006f05b59d3b20000",
          "blockHash": "0x86ed7960202913d32b11c3be160129c3ca28805a230b883e351487f38080d78f",
          "blockNumber": "0x64b839",
          "transactionHash": "0xe15aa8478d3795e22c38b2023bc4997f9b6a6feb1cf4ed4cabd98faa65924e62",
          "transactionIndex": "0x3c",
          "logIndex": "0x49",
          "removed": false
        },
        {
          "address": "0x5840cd416458904526d54c4bdbff9a924985a153",
          "topics": [
            "0xe5cd089353b4916668b2bbc55448d780928bf364fc9c1cee74f946af758d969e",
            "0x0000000000000000000000000000000000000000000000000000000000000002"
          ],
          "data": "0x00000000000000000000000000000000000000000000000006f05b59d3b2000000000000000000000000000000000000000000000000000006f05b59d3b20000",
          "blockHash": "0x86ed7960202913d32b11c3be160129c3ca28805a230b883e351487f38080d78f",
          "blockNumber": "0x64b839",
          "transactionHash": "0xe15aa8478d3795e22c38b2023bc4997f9b6a6feb1cf4ed4cabd98faa65924e62",
          "transactionIndex": "0x3c",
          "logIndex": "0x4a",
          "removed": false
        }
      ],
      "logsBloom": "0x04000000000000000000000000000000000100000000000000000000000000000000000000000000800000000000000000000000000000000000000000040000000000000000000000000008000000000000000000040400020000000000000000000000000000000000000000000000000000000000000000000010000000000000000000000002000000000000000000000000000000020000000000000000000000000000000000000100200000000000000000000000080400000020020000000002000000000000000000000000000000000000800000000000800040000000000000000000000000000002000000000000008000000000000000000000",
      "type": "0x2",
      "transactionHash": "0xe15aa8478d3795e22c38b2023bc4997f9b6a6feb1cf4ed4cabd98faa65924e62",
      "transactionIndex": "0x3c",
      "blockHash": "0x86ed7960202913d32b11c3be160129c3ca28805a230b883e351487f38080d78f",
      "blockNumber": "0x64b839",
      "gasUsed": "0x26040",
      "effectiveGasPrice": "0x13ecc8286b",
      "from": "0x1726cf86da996bc4b2f393e713f6f8ef83f2e4f6",
      "to": "0x5840cd416458904526d54c4bdbff9a924985a153",
      "contractAddress": null
    }
  ],
  "libraries": [],
  "pending": [],
  "returns": {},
  "timestamp": 1725029789,
  "chain": 11155111,
  "commit": "d2a137a"
}