{
  "transactions": [
    {
      "hash": "0x5a0d789181d9aa00ef19510c63ebba06e83dcd161d99b2a70569aaa2c4faf298",
      "transactionType": "CALL",
      "contractName": null,
      "contractAddress": "0x99f0cbf8e1d25d1783ad3b530552df5145522418",
      "function": "approve(address,uint256)",
      "arguments": [
        "0x966DC7b7a01e631C0A171FA2aCC4714bf98622D5",
        "1000000000000000000"
      ],
      "transaction": {
        "from": "0x1726cf86da996bc4b2f393e713f6f8ef83f2e4f6",
        "to": "0x99f0cbf8e1d25d1783ad3b530552df5145522418",
        "gas": "0x108e9",
        "value": "0x0",
        "input": "0x095ea7b3000000000000000000000000966dc7b7a01e631c0a171fa2acc4714bf98622d50000000000000000000000000000000000000000000000000de0b6b3a7640000",
        "nonce": "0x251",
        "chainId": "0xaa36a7"
      },
      "additionalContracts": [],
      "isFixedGasLimit": false
    },
    {
      "hash": "0xec5203232f8025748787d3f5cb3bbc3b5598facd24504ffcfa4636fa9cd4f3ab",
      "transactionType": "CALL",
      "contractName": null,
      "contractAddress": "0x966dc7b7a01e631c0a171fa2acc4714bf98622d5",
      "function": "fundRaffle(uint256,uint256)",
      "arguments": [
        "2",
        "1000000000000000000"
      ],
      "transaction": {
        "from": "0x1726cf86da996bc4b2f393e713f6f8ef83f2e4f6",
        "to": "0x966dc7b7a01e631c0a171fa2acc4714bf98622d5",
        "gas": "0x34825",
        "value": "0xde0b6b3a7640000",
        "input": "0x988ddfa300000000000000000000000000000000000000000000000000000000000000020000000000000000000000000000000000000000000000000de0b6b3a7640000",
        "nonce": "0x252",
        "chainId": "0xaa36a7"
      },
      "additionalContracts": [],
      "isFixedGasLimit": false
    }
  ],
  "receipts": [
    {
      "status": "0x1",
      "cumulativeGasUsed": "0x4a7c04",
      "logs": [
        {
          "address": "0x99f0cbf8e1d25d1783ad3b530552df5145522418",
          "topics": [
            "0x8c5be1e5ebec7d5bd14f71427d1e84f3dd0314c0f7b2291e5b200ac8c7c3b925",
            "0x0000000000000000000000001726cf86da996bc4b2f393e713f6f8ef83f2e4f6",
            "0x000000000000000000000000966dc7b7a01e631c0a171fa2acc4714bf98622d5"
          ],
          "data": "0x0000000000000000000000000000000000000000000000000de0b6b3a7640000",
          "blockHash": "0x573f0cc0dd444320dcc61b8aee69a6550db2b0c25b7e44893457261b9e5bf9f5",
          "blockNumber": "0x64f423",
          "transactionHash": "0x5a0d789181d9aa00ef19510c63ebba06e83dcd161d99b2a70569aaa2c4faf298",
          "transactionIndex": "0x1e",
          "logIndex": "0x3a",
          "removed": false
        }
      ],
      "logsBloom": "0x00000000200000000000000000000000000000000000000000000000000000000000000000000000000000000000000000000000000000000000000000200000000002000000000000000000000000000000000000000000000000000000000000000000000020000000000000000000000000000000000000000000000000000000000000000002000000000000000000000000000000200000000000000000020000000000000000000000000000000000000000000000000000002000000000000000000000000000000080000000000000000000000000000000800000000010000000000000000000000002000000000000000000000000000000000000",
      "type": "0x2",
      "transactionHash": "0x5a0d789181d9aa00ef19510c63ebba06e83dcd161d99b2a70569aaa2c4faf298",
      "transactionIndex": "0x1e",
      "blockHash": "0x573f0cc0dd444320dcc61b8aee69a6550db2b0c25b7e44893457261b9e5bf9f5",
      "blockNumber": "0x64f423",
      "gasUsed": "0xb523",
      "effectiveGasPrice": "0x878b7a5a",
      "from": "0x1726cf86da996bc4b2f393e713f6f8ef83f2e4f6",
      "to": "0x99f0cbf8e1d25d1783ad3b530552df5145522418",
      "contractAddress": null
    },
    {
      "status": "0x1",
      "cumulativeGasUsed": "0x519603",
      "logs": [
        {
          "address": "0x99f0cbf8e1d25d1783ad3b530552df5145522418",
          "topics": [
            "0xddf252ad1be2c89b69c2b068fc378daa952ba7f163c4a11628f55a4df523b3ef",
            "0x0000000000000000000000001726cf86da996bc4b2f393e713f6f8ef83f2e4f6",
            "0x000000000000000000000000966dc7b7a01e631c0a171fa2acc4714bf98622d5"
          ],
          "data": "0x0000000000000000000000000000000000000000000000000de0b6b3a7640000",
          "blockHash": "0x573f0cc0dd444320dcc61b8aee69a6550db2b0c25b7e44893457261b9e5bf9f5",
          "blockNumber": "0x64f423",
          "transactionHash": "0xec5203232f8025748787d3f5cb3bbc3b5598facd24504ffcfa4636fa9cd4f3ab",
          "transactionIndex": "0x23",
          "logIndex": "0x3c",
          "removed": false
        },
        {
          "address": "0x966dc7b7a01e631c0a171fa2acc4714bf98622d5",
          "topics": [
            "0xe5cd089353b4916668b2bbc55448d780928bf364fc9c1cee74f946af758d969e",
            "0x0000000000000000000000000000000000000000000000000000000000000001"
          ],
          "data": "0x00000000000000000000000000000000000000000000000006f05b59d3b2000000000000000000000000000000000000000000000000000006f05b59d3b20000",
          "blockHash": "0x573f0cc0dd444320dcc61b8aee69a6550db2b0c25b7e44893457261b9e5bf9f5",
          "blockNumber": "0x64f423",
          "transactionHash": "0xec5203232f8025748787d3f5cb3bbc3b5598facd24504ffcfa4636fa9cd4f3ab",
          "transactionIndex": "0x23",
          "logIndex": "0x3d",
          "removed": false
        },
        {
          "address": "0x966dc7b7a01e631c0a171fa2acc4714bf98622d5",
          "topics": [
            "0xe5cd089353b4916668b2bbc55448d780928bf364fc9c1cee74f946af758d969e",
            "0x0000000000000000000000000000000000000000000000000000000000000002"
          ],
          "data": "0x00000000000000000000000000000000000000000000000006f05b59d3b2000000000000000000000000000000000000000000000000000006f05b59d3b20000",
          "blockHash": "0x573f0cc0dd444320dcc61b8aee69a6550db2b0c25b7e44893457261b9e5bf9f5",
          "blockNumber": "0x64f423",
          "transactionHash": "0xec5203232f8025748787d3f5cb3bbc3b5598facd24504ffcfa4636fa9cd4f3ab",
          "transactionIndex": "0x23",
          "logIndex": "0x3e",
          "removed": false
        }
      ],
      "logsBloom": "0x04000000200000000000000000000000000000000000000000000000000000000000000000000000000000000000000000000000000000000000000400040000000002000000000000000108000000000000000000040000020000000000000000000000000020000000000000000000000000000000000000000010000000000000000000000002000000000000000000000000000000200000000000000000000000000000000000000100000000000000000000000000000000002000000000000002000001000000000080000000000000000000800000000000800040000000000000000000000000000002000000000000008000000000000000000000",
      "type": "0x2",
      "transactionHash": "0xec5203232f8025748787d3f5cb3bbc3b5598facd24504ffcfa4636fa9cd4f3ab",
      "transactionIndex": "0x23",
      "blockHash": "0x573f0cc0dd444320dcc61b8aee69a6550db2b0c25b7e44893457261b9e5bf9f5",
      "blockNumber": "0x64f423",
      "gasUsed": "0x26040",
      "effectiveGasPrice": "0x878b7a5a",
      "from": "0x1726cf86da996bc4b2f393e713f6f8ef83f2e4f6",
      "to": "0x966dc7b7a01e631c0a171fa2acc4714bf98622d5",
      "contractAddress": null
    }
  ],
  "libraries": [],
  "pending": [],
  "returns": {},
  "timestamp": 1725242765,
  "chain": 11155111,
  "commit": "d2a137a"
}