{
  "transactions": [
    {
      "hash": "0x8ed7bd8833d8461b9e6d2e22402525e0fb7aead34aaf3190873b9cc5b5a1e358",
      "transactionType": "CALL",
      "contractName": null,
      "contractAddress": "0x30b6f7c268fa02b96284a7a2b3af38e006b5e2a2",
      "function": "setURI(string)",
      "arguments": [
        "https://raffle.superchain.eco/api/raffle?file=raffle-weekly-se"
      ],
      "transaction": {
        "from": "0x8835669696fb92839ab198cd80ce9f0d35f45ad5",
        "to": "0x30b6f7c268fa02b96284a7a2b3af38e006b5e2a2",
        "gas": "0x21571",
        "value": "0x0",
        "input": "0x02fe53050000000000000000000000000000000000000000000000000000000000000020000000000000000000000000000000000000000000000000000000000000003e68747470733a2f2f726166666c652e7375706572636861696e2e65636f2f6170692f726166666c653f66696c653d726166666c652d7765656b6c792d73650000",
        "nonce": "0x78",
        "chainId": "0xa"
      },
      "additionalContracts": [],
      "isFixedGasLimit": false
    },
    {
      "hash": "0x96217c039c3102c5cbbab9936005bf8aab6bab76d4a39379ac85fb1c2df54093",
      "transactionType": "CALL",
      "contractName": null,
      "contractAddress": "0x30b6f7c268fa02b96284a7a2b3af38e006b5e2a2",
      "function": "setFreeTicketsPerLevel(uint256[])",
      "arguments": [
        "[1, 2, 3, 4, 5, 6, 7, 8, 9, 10]"
      ],
      "transaction": {
        "from": "0x8835669696fb92839ab198cd80ce9f0d35f45ad5",
        "to": "0x30b6f7c268fa02b96284a7a2b3af38e006b5e2a2",
        "gas": "0x5e869",
        "value": "0x0",
        "input": "0x347898090000000000000000000000000000000000000000000000000000000000000020000000000000000000000000000000000000000000000000000000000000000a000000000000000000000000000000000000000000000000000000000000000100000000000000000000000000000000000000000000000000000000000000020000000000000000000000000000000000000000000000000000000000000003000000000000000000000000000000000000000000000000000000000000000400000000000000000000000000000000000000000000000000000000000000050000000000000000000000000000000000000000000000000000000000000006000000000000000000000000000000000000000000000000000000000000000700000000000000000000000000000000000000000000000000000000000000080000000000000000000000000000000000000000000000000000000000000009000000000000000000000000000000000000000000000000000000000000000a",
        "nonce": "0x79",
        "chainId": "0xa"
      },
      "additionalContracts": [],
      "isFixedGasLimit": false
    },
    {
      "hash": "0xd34d5b01ab14387634bcb2ec99bdc8cb62fc9e2f5e23033abd785cf6cb239c7d",
      "transactionType": "CALL",
      "contractName": null,
      "contractAddress": "0x9ad670be0ed061b1e09399e8fdc10b110000b8f9",
      "function": "setWhitelistedRaffle(address,bool)",
      "arguments": [
        "0x30B6f7C268fa02b96284A7A2b3Af38E006b5e2A2",
        "true"
      ],
      "transaction": {
        "from": "0x8835669696fb92839ab198cd80ce9f0d35f45ad5",
        "to": "0x9ad670be0ed061b1e09399e8fdc10b110000b8f9",
        "gas": "0xf966",
        "value": "0x0",
        "input": "0x302916e400000000000000000000000030b6f7c268fa02b96284a7a2b3af38e006b5e2a20000000000000000000000000000000000000000000000000000000000000001",
        "nonce": "0x7a",
        "chainId": "0xa"
      },
      "additionalContracts": [],
      "isFixedGasLimit": false
    }
  ],
  "receipts": [
    {
      "status": "0x1",
      "cumulativeGasUsed": "0x214313",
      "logs": [
        {
          "address": "0x30b6f7c268fa02b96284a7a2b3af38e006b5e2a2",
          "topics": [
            "0xbd06d92759c326896ec0f7c3a981e801ae4644e020f89b2a198909b692df0ddd"
          ],
          "data": "0x0000000000000000000000000000000000000000000000000000000000000020000000000000000000000000000000000000000000000000000000000000003e68747470733a2f2f726166666c652e7375706572636861696e2e65636f2f6170692f726166666c653f66696c653d726166666c652d7765656b6c792d73650000",
          "blockHash": "0x65cdd76c42330fa0198a6cb2afaa67f645287056edb8bc73cebf9b5a4d9d5693",
          "blockNumber": "0x7916a90",
          "transactionHash": "0x8ed7bd8833d8461b9e6d2e22402525e0fb7aead34aaf3190873b9cc5b5a1e358",
          "transactionIndex": "0x9",
          "logIndex": "0x3b",
          "removed": false
        }
      ],
      "logsBloom": "0x00000000020000000000000000000000000000000000000000000000000000000000000000000000000200000000000080000000000000000000000000000000000000000000000000000000000000000000000000000000000000000000000000000000000000000000000000000000000000000000000000000000000000000000000000000000000000000000000000000000000000000000000000000000000000000000000000000000000000000000000000000000000000000000000000000000000000000000000000000000000000000000000000000000000000020000000000000100000000000000000000000000000040000000000000000000",
      "type": "0x2",
      "transactionHash": "0x8ed7bd8833d8461b9e6d2e22402525e0fb7aead34aaf3190873b9cc5b5a1e358",
      "transactionIndex": "0x9",
      "blockHash": "0x65cdd76c42330fa0198a6cb2afaa67f645287056edb8bc73cebf9b5a4d9d5693",
      "blockNumber": "0x7916a90",
      "gasUsed": "0x18234",
      "effectiveGasPrice": "0x10c61",
      "from": "0x8835669696fb92839ab198cd80ce9f0d35f45ad5",
      "to": "0x30b6f7c268fa02b96284a7a2b3af38e006b5e2a2",
      "contractAddress": null,
      "l1BaseFeeScalar": "0x146b",
      "l1BlobBaseFee": "0x1",
      "l1BlobBaseFeeScalar": "0xf79c5",
      "l1Fee": "0x1416b04a5e",
      "l1GasPrice": "0x228563864",
      "l1GasUsed": "0x6f5"
    },
    {
      "status": "0x1",
      "cumulativeGasUsed": "0x258a09",
      "logs": [
        {
          "address": "0x30b6f7c268fa02b96284a7a2b3af38e006b5e2a2",
          "topics": [
            "0xd62032bbbc8e942f5d17f3af798aefa3e8f0875d1e5735fe8823b76629c7c2b7"
          ],
          "data": "0x0000000000000000000000000000000000000000000000000000000000000020000000000000000000000000000000000000000000000000000000000000000a000000000000000000000000000000000000000000000000000000000000000100000000000000000000000000000000000000000000000000000000000000020000000000000000000000000000000000000000000000000000000000000003000000000000000000000000000000000000000000000000000000000000000400000000000000000000000000000000000000000000000000000000000000050000000000000000000000000000000000000000000000000000000000000006000000000000000000000000000000000000000000000000000000000000000700000000000000000000000000000000000000000000000000000000000000080000000000000000000000000000000000000000000000000000000000000009000000000000000000000000000000000000000000000000000000000000000a",
          "blockHash": "0x65cdd76c42330fa0198a6cb2afaa67f645287056edb8bc73cebf9b5a4d9d5693",
          "blockNumber": "0x7916a90",
          "transactionHash": "0x96217c039c3102c5cbbab9936005bf8aab6bab76d4a39379ac85fb1c2df54093",
          "transactionIndex": "0xa",
          "logIndex": "0x3c",
          "removed": false
        }
      ],
      "logsBloom": "0x00004000020000000000000000000000000000000000000000000000000000000000000000000000000000000000000080000000000000000000000000000000000000000000000000000000000000000000000000000000000000000000000000000000000000000000000000000000000000000000000000000000000000000000000000008000000000000000000000000000000000000000000000000000000000000000000000000000000000000000000000000000000000000000000000000000000000000000000000000000000000000000000000000000000000000000000000000100000000000000000000000000000000000000040000000000",
      "type": "0x2",
      "transactionHash": "0x96217c039c3102c5cbbab9936005bf8aab6bab76d4a39379ac85fb1c2df54093",
      "transactionIndex": "0xa",
      "blockHash": "0x65cdd76c42330fa0198a6cb2afaa67f645287056edb8bc73cebf9b5a4d9d5693",
      "blockNumber": "0x7916a90",
      "gasUsed": "0x446f6",
      "effectiveGasPrice": "0x10c61",
      "from": "0x8835669696fb92839ab198cd80ce9f0d35f45ad5",
      "to": "0x30b6f7c268fa02b96284a7a2b3af38e006b5e2a2",
      "contractAddress": null,
      "l1BaseFeeScalar": "0x146b",
      "l1BlobBaseFee": "0x1",
      "l1BlobBaseFeeScalar": "0xf79c5",
      "l1Fee": "0x159917e526",
      "l1GasPrice": "0x228563864",
      "l1GasUsed": "0x77b"
    },
    {
      "status": "0x1",
      "cumulativeGasUsed": "0x263e99",
      "logs": [],
      "logsBloom": "0x00000000000000000000000000000000000000000000000000000000000000000000000000000000000000000000000000000000000000000000000000000000000000000000000000000000000000000000000000000000000000000000000000000000000000000000000000000000000000000000000000000000000000000000000000000000000000000000000000000000000000000000000000000000000000000000000000000000000000000000000000000000000000000000000000000000000000000000000000000000000000000000000000000000000000000000000000000000000000000000000000000000000000000000000000000000",
      "type": "0x2",
      "transactionHash": "0xd34d5b01ab14387634bcb2ec99bdc8cb62fc9e2f5e23033abd785cf6cb239c7d",
      "transactionIndex": "0xb",
      "blockHash": "0x65cdd76c42330fa0198a6cb2afaa67f645287056edb8bc73cebf9b5a4d9d5693",
      "blockNumber": "0x7916a90",
      "gasUsed": "0xb490",
      "effectiveGasPrice": "0x10c61",
      "from": "0x8835669696fb92839ab198cd80ce9f0d35f45ad5",
      "to": "0x9ad670be0ed061b1e09399e8fdc10b110000b8f9",
      "contractAddress": null,
      "l1BaseFeeScalar": "0x146b",
      "l1BlobBaseFee": "0x1",
      "l1BlobBaseFeeScalar": "0xf79c5",
      "l1Fee": "0x120b4d98ec",
      "l1GasPrice": "0x228563864",
      "l1GasUsed": "0x640"
    }
  ],
  "libraries": [],
  "pending": [],
  "returns": {},
  "timestamp": 1729539807,
  "chain": 10,
  "commit": "ec8f290"
}