{
  "transactions": [
    {
      "hash": "0x176058ccd863f9b5a8b3bb5e1085c3dc2266d44ddf996b843e7162cadc7eec78",
      "transactionType": "CALL",
      "contractName": null,
      "contractAddress": "0x9a0d7f73f297b1901e3bcbe052c52e383eeaef90",
      "function": "approve(address,uint256)",
      "arguments": [
        "0x7997454073d9e80fd0b6FcD0308B9068C7522448",
        "1000000000000000000"
      ],
      "transaction": {
        "from": "0x8835669696fb92839ab198cd80ce9f0d35f45ad5",
        "to": "0x9a0d7f73f297b1901e3bcbe052c52e383eeaef90",
        "gas": "0x108e9",
        "value": "0x0",
        "input": "0x095ea7b30000000000000000000000007997454073d9e80fd0b6fcd0308b9068c75224480000000000000000000000000000000000000000000000000de0b6b3a7640000",
        "nonce": "0xc0",
        "chainId": "0xaa36a7"
      },
      "additionalContracts": [],
      "isFixedGasLimit": false
    },
    {
      "hash": "0xf27f240f585e1bba59b774525eb4c4767b30fdd04c0562a7bb4eace4e78bb4f2",
      "transactionType": "CALL",
      "contractName": null,
      "contractAddress": "0x7997454073d9e80fd0b6fcd0308b9068c7522448",
      "function": "fundRaffle(uint256,uint256)",
      "arguments": [
        "1",
        "100000000000000000"
      ],
      "transaction": {
        "from": "0x8835669696fb92839ab198cd80ce9f0d35f45ad5",
        "to": "0x7997454073d9e80fd0b6fcd0308b9068c7522448",
        "gas": "0x26613",
        "value": "0x16345785d8a0000",
        "input": "0x988ddfa30000000000000000000000000000000000000000000000000000000000000001000000000000000000000000000000000000000000000000016345785d8a0000",
        "nonce": "0xc1",
        "chainId": "0xaa36a7"
      },
      "additionalContracts": [],
      "isFixedGasLimit": false
    }
  ],
  "receipts": [
    {
      "status": "0x1",
      "cumulativeGasUsed": "0x875019",
      "logs": [
        {
          "address": "0x9a0d7f73f297b1901e3bcbe052c52e383eeaef90",
          "topics": [
            "0x8c5be1e5ebec7d5bd14f71427d1e84f3dd0314c0f7b2291e5b200ac8c7c3b925",
            "0x0000000000000000000000008835669696fb92839ab198cd80ce9f0d35f45ad5",
            "0x0000000000000000000000007997454073d9e80fd0b6fcd0308b9068c7522448"
          ],
          "data": "0x0000000000000000000000000000000000000000000000000de0b6b3a7640000",
          "blockHash": "0x9f25d3fffb1bfc7b81d5f270652180520f7746490961070826fb121e02127d08",
          "blockNumber": "0x674ea3",
          "transactionHash": "0x176058ccd863f9b5a8b3bb5e1085c3dc2266d44ddf996b843e7162cadc7eec78",
          "transactionIndex": "0x1c",
          "logIndex": "0x31",
          "removed": false
        }
      ],
      "logsBloom": "0x00000000000000000000000000000000000000000000000000000000000000000000000000000000000000000000000000000000000000000000000000200000000000000000000000000000000000000400008000000000000000000000000000000000000000000000000000200000000000000000000000080000000000000000000000000000000000000000000000000000000000000000000000000000020000000000000000000000000000000000000000000000000000000000000000000002000000000000000000000000000000040000000000004000000000000010000000000000000000000000000000000080020000000000000000000000",
      "type": "0x2",
      "transactionHash": "0x176058ccd863f9b5a8b3bb5e1085c3dc2266d44ddf996b843e7162cadc7eec78",
      "transactionIndex": "0x1c",
      "blockHash": "0x9f25d3fffb1bfc7b81d5f270652180520f7746490961070826fb121e02127d08",
      "blockNumber": "0x674ea3",
      "gasUsed": "0xb523",
      "effectiveGasPrice": "0x1d0bf5b233",
      "from": "0x8835669696fb92839ab198cd80ce9f0d35f45ad5",
      "to": "0x9a0d7f73f297b1901e3bcbe052c52e383eeaef90",
      "contractAddress": null
    },
    {
      "status": "0x1",
      "cumulativeGasUsed": "0x8d322b",
      "logs": [
        {
          "address": "0x9a0d7f73f297b1901e3bcbe052c52e383eeaef90",
          "topics": [
            "0xddf252ad1be2c89b69c2b068fc378daa952ba7f163c4a11628f55a4df523b3ef",
            "0x0000000000000000000000008835669696fb92839ab198cd80ce9f0d35f45ad5",
            "0x0000000000000000000000007997454073d9e80fd0b6fcd0308b9068c7522448"
          ],
          "data": "0x000000000000000000000000000000000000000000000000016345785d8a0000",
          "blockHash": "0x9f25d3fffb1bfc7b81d5f270652180520f7746490961070826fb121e02127d08",
          "blockNumber": "0x674ea3",
          "transactionHash": "0xf27f240f585e1bba59b774525eb4c4767b30fdd04c0562a7bb4eace4e78bb4f2",
          "transactionIndex": "0x1f",
          "logIndex": "0x33",
          "removed": false
        },
        {
          "address": "0x7997454073d9e80fd0b6fcd0308b9068c7522448",
          "topics": [
            "0xe5cd089353b4916668b2bbc55448d780928bf364fc9c1cee74f946af758d969e",
            "0x0000000000000000000000000000000000000000000000000000000000000001"
          ],
          "data": "0x000000000000000000000000000000000000000000000000016345785d8a0000000000000000000000000000000000000000000000000000016345785d8a0000",
          "blockHash": "0x9f25d3fffb1bfc7b81d5f270652180520f7746490961070826fb121e02127d08",
          "blockNumber": "0x674ea3",
          "transactionHash": "0xf27f240f585e1bba59b774525eb4c4767b30fdd04c0562a7bb4eace4e78bb4f2",
          "transactionIndex": "0x1f",
          "logIndex": "0x34",
          "removed": false
        }
      ],
      "logsBloom": "0x00000000000000000000000000000000000000000000000000000000000000000000000000000000000000000000000000000000000000000000000000040000000000000000000000000008000000000400008000040000020000000000000000000000000000000000000000200000000000000000000000080010000000000000000000000000100000000000000000000000000000000000000000000000000000000000000000000000000000000000000000000000000100000000002000000002000000000000000000000000000000040000800000004000000040000000000000000000000000000000000000000080020000000000000000000000",
      "type": "0x2",
      "transactionHash": "0xf27f240f585e1bba59b774525eb4c4767b30fdd04c0562a7bb4eace4e78bb4f2",
      "transactionIndex": "0x1f",
      "blockHash": "0x9f25d3fffb1bfc7b81d5f270652180520f7746490961070826fb121e02127d08",
      "blockNumber": "0x674ea3",
      "gasUsed": "0x1bc95",
      "effectiveGasPrice": "0x1d0bf5b233",
      "from": "0x8835669696fb92839ab198cd80ce9f0d35f45ad5",
      "to": "0x7997454073d9e80fd0b6fcd0308b9068c7522448",
      "contractAddress": null
    }
  ],
  "libraries": [],
  "pending": [],
  "returns": {},
  "timestamp": 1727459186,
  "chain": 11155111,
  "commit": "d9eb1c7"
}